:100000000EC028C00BC126C00EC2E2C023C022C051
:1000100021C020C01FC01EC01DC01CC01BC0112499
:100020001FBECFE5D2E0DEBFCDBF10E0A0E6B0E05E
:10003000E6EDFEE002C005900D92A836B107D9F7B3
:1000400010E0A8E6B0E001C01D92AA3BB107E1F7BD
:100050000FD23FC7D5CF282F882319F0B898C09A60
:1000600002C0C098B89ABA98C29A85E8982F9A9513
:10007000F1F7C298BA9A8A95F1F7222311F0C09845
:10008000B89A85E88A95F1F70895B898C09ABA9811
:10009000C29A95E8892F8A95F1F786B3C298BA9AE1
:1000A0009A95F1F78170089588B38A7F88BBBA98D2
:1000B000C29AB898C09A85E88A95F1F7089587B3EF
:1000C0008A7F87BB85E8982F9A95F1F7C098B89AF0
:1000D000982F9A95F1F7C298BA9A8A95F1F70895F0
:1000E000BA98C29A85E8982F9A95F1F7B898C09A6D
:1000F0008A95F1F708950F931F93082F10E0802F32
:100100008078A9DF000F1F5F1830C9F7BEDF1F918D
:100110000F910895FF920F931F93F82E00E010E0C7
:10012000000FB3DF082B1F5F1830D1F7FF2011F04D
:1001300080E001C081E08FDF85E88A95F1F7802FAC
:100140001F910F91FF900895E0919900F0E0809148
:100150006F00909170002091710030917200409179
:100160007300509174006091750070917600A3E067
:10017000EE0FFF1FAA95E1F7E758FF4F80839183A9
:1001800022833383448355836683778380919900E8
:100190008F5F8093990080919900843011F41092C0
:1001A000990010926F0010927000109271001092DE
:1001B00072001092730010927400109275001092E9
:1001C00076008091770080937800109277000895F0
:1001D0001F920F920FB60F9211242F933F934F93BC
:1001E0005F936F937F938F939F93AF93BF93EF939F
:1001F000FF93809177008111A7DFFF91EF91BF916D
:10020000AF919F918F917F916F915F914F913F91AE
:100210002F910F900FBE0F901F9018951F920F9265
:100220000FB60F9211240F932F933F934F935F9329
:100230006F937F938F939F93AF93BF93EF93FF93AE
:1002400026B382B790E090939B0080939A0012BEF1
:1002500080919A0090919B008E35910528F08091B5
:100260007700882309F061C024FF5FC080919A0065
:1002700090919B00CF9798F01092770010926F00AA
:100280001092700010927100109272001092730020
:1002900010927400109275001092760046C0809102
:1002A0009A0090919B004D97A0F020916F003091A3
:1002B00070004091710050917200609173007091D4
:1002C0007400809175009091760001E05CD421600B
:1002D00012C020916F0030917000409171005091D8
:1002E000720060917300709174008091750090911C
:1002F000760001E048D420936F0030937000409363
:100300007100509372006093730070937400809337
:10031000750090937600809177008F5F80937700CF
:1003200080917700803409F40FDFFF91EF91BF9146
:10033000AF919F918F917F916F915F914F913F917D
:100340002F910F910F900FBE0F901F901895B7DE51
:1003500080916800880FCFDE8FE6CDDEC1DE089584
:10036000EF92FF920F931F93182F062FF42EE22E79
:10037000A6DE80916800880FBEDE812FBCDE802F54
:10038000BADE8F2DB8DE8E2DB6DEAADE1F910F915C
:10039000FF90EF9008951F93182F91DE80916800D1
:1003A000880FA9DE86E6A7DE812FA5DE99DE1F91E4
:1003B0000895CDDF8EE660E040E020E0D1DF0895D3
:1003C000EF92FF920F931F93CF93DF93C0E0D0E0A3
:1003D000082F10E0B8ECEB2EF12C1BC0C19A8EE672
:1003E00069E049E029E0BCDF8CED95E0F701319749
:1003F000F1F70197D9F7C1988EE660E040E020E080
:10040000AFDF8CED95E0F7013197F1F70197D9F760
:100410002196C017D10714F3DF91CF911F910F914F
:10042000FF90EF9008951F920F920FB60F92112434
:100430008F939F93AF93BF9380916B0090916C00CB
:10044000A0916D00B0916E000296A11DB11D809328
:100450006B0090936C00A0936D00B0936E00BF9101
:10046000AF919F918F910F900FBE0F901F90189595
:100470006F927F928F929F92AF92BF92CF92DF92B4
:10048000EF92FF920F931F93DF93CF9300D00F92C1
:10049000CDB7DEB780E886BD16BC80B7876080BF69
:1004A00088B7846088BF89B7846089BF7894B99A17
:1004B00088EB9BE028EC30E0F9013197F1F70197E8
:1004C000D9F780E090E059D48093630080E185BB48
:1004D0008BB780628BBF89B7826089BF109277002B
:1004E00084E083BFC49A12BEDFDD63DF83E068DF90
:1004F00081E08093690080916B0090916C00A091E5
:100500006D00B0916E0080549F41A040B040809338
:10051000A4009093A500A093A600B093A70058E074
:10052000752E46E0E42E30E8632EDD24D39424E0DB
:10053000C22E0FEF97E0F92E83E0982E12E0812E65
:100540005E010894A11CB11C80916B0090916C001D
:10055000A0916D00B0916E002091B0003091B1007B
:100560004091B2005091B300821B930BA40BB50BCA
:10057000815B9440A040B04010F01092A1008091A7
:1005800099008823C9F0809178008C30A9F480917B
:10059000790090917A0060917B0070917C002091AD
:1005A0007D0020917E0020917F00209180009C01A1
:1005B000C901109299003DC0809199008823A9F14A
:1005C00080917800803489F580918000853519F01C
:1005D000109299002AC080919900813031F5A8EAE3
:1005E000B0E027E030E0F901E758FF4F80818D93BC
:1005F000215030408FEF2F3F3807A9F790917900B5
:1006000021E030E0F901E758FF4F8081981B2F5F10
:100610003F4F28303105B1F710929900992329F402
:1006200081E090E0A0E0B0E004C080E090E0A0E0D5
:10063000B0E0BC019093A3008093A200892B09F441
:10064000C8C18130910509F062C0C19A1092690059
:100650002091AA002F3F71F48091AB008F3F51F49D
:100660006091A9006093630080E090E097D385E0FB
:10067000A7DEAEC19091A90080916300981719F090
:10068000992309F0A5C12E3FB9F48091AB00909158
:10069000AC0099839091AD009A839091AE009B83BA
:1006A00090E063E070E0EED2BC016F5F7F4FC50168
:1006B00043E050E06AD38CC12D3FB9F41091AC00F7
:1006C0008091AB0090E063E070E0DCD2BC016F5F32
:1006D0007F4FC50143E050E040D3112309F413E6F6
:1006E000812F69814A812B8110C0209368008091FD
:1006F000AB00863621F48091AC004DDE69C160917B
:10070000AC004091AD002091AE002ADE61C1809125
:10071000B8009091B9006817790709F046C0809138
:100720006B0090916C00A0916D00B0916E002091D3
:10073000B0003091B1004091B2005091B300821BE3
:10074000930BA40BB50B883C9105A105B105E0F412
:1007500080916B0090916C00A0916D00B0916E0043
:1007600020919C0030919D0040919E0050919F00EF
:10077000821B930BA40BB50B815B9440A040B0404F
:1007800030F1D092A10023C080916B0090916C0059
:10079000A0916D00B0916E0080939C0090939D009D
:1007A000A0939E00B0939F0012C080916B00909127
:1007B0006C00A0916D00B0916E0080939C009093AE
:1007C0009D00A0939E00B0939F001092A100709393
:1007D000B9006093B80080916B0090916C00A0917B
:1007E0006D00B0916E008093B0009093B100A09323
:1007F000B200B093B300C19A84E06039780731F059
:1008000060597C4019F0A3DD8AE0C5DD8091A2002B
:100810009091A3002AE08039920721F41092690098
:10082000C8DDD2C08039910541F4809169008823E8
:1008300009F067C0F092690064C028E0803992072F
:1008400061F480916900882311F4F092690080912D
:100850006A00825080936A00B7C024E08039920712
:1008600069F480916900882311F4F0926900809105
:1008700062008D3F08F069C08D5F97C02CE0803921
:10088000920779F480916900882311F4F09269004D
:1008900080916200833010F0835087C01092620014
:1008A00093C08031910541F4D0926900809162003B
:1008B000882309F089C049C028E08031920749F4B3
:1008C00080926900809162008823C1F500936200E4
:1008D00035C024E08031920719F4909269002EC04F
:1008E0002CE08031920789F4F092690080916200D7
:1008F000882311F4009362008091A100882309F4F9
:1009000063C080916A008E5FA5CF22E0803192079C
:1009100039F4F092690012D2809362000FD29ACF1C
:100920002AE080319207A1F4C09269001092A400DD
:100930001092A5001092A6001092A7008091A1002D
:10094000882309F441C010926A00009362003CC001
:1009500026E08031920749F4E0926900D09262006B
:1009600083E661E041E021E02EC02EE08031920775
:1009700049F4E09269006092620083E660E840E832
:1009800020E821C021E08031920791F4E0926900D3
:100990002091620083E6622F422FE2DC8091A10069
:1009A000882391F080916200865F809362000CC082
:1009B0008051994049F4709269008AE0ECDC80E74C
:1009C00060E040E020E0CCDC1092A3001092A20096
:1009D000C19880916B0090916C00A0916D00B091D6
:1009E0006E004091A4005091A5006091A600709106
:1009F000A700841B950BA60BB70B8093B4009093B4
:100A0000B500A093B600B093B700209169002130E3
:100A1000D1F4815A9F40A040B04008F44DC080916D
:100A20006B0090916C00A0916D00B0916E0080936E
:100A3000A4009093A500A093A600B093A7007ED138
:100A400080936A0039C0223059F58D529140A04000
:100A5000B040E0F080916B0090916C00A0916D002F
:100A6000B0916E008093A4009093A500A093A6007F
:100A7000B093A70063D180936A0084E68CDC88E69B
:100A800060916A004FEF209162006ADC84E683DCAB
:100A900088E660916A004FEF2091620061DC54CDDE
:100AA000263041F482E077DC2091620083E6622FF9
:100AB000422FF4CF273011F482E0E9CF233059F5EB
:100AC0008D529140A040B04008F43ECD80916B0023
:100AD00090916C00A0916D00B0916E008093A40085
:100AE0009093A500A093A600B093A70084E653DCE2
:100AF0008091A100882361F68091A0008B3010F0D6
:100B000020E002C0209162002093A00088E660915E
:100B10006A004FEFC3CF243009F016CD41155105BF
:100B200061057105D1F484E636DC88E660916A00DF
:100B30004FEF2091620014DC80916B0090916C006B
:100B4000A0916D00B0916E008093A4009093A500D9
:100B5000A093A600B093A700F7CC8D529140A0407F
:100B6000B04008F4F1CC88E660E040E020E0F8DB3B
:100B7000109269001092A4001092A5001092A60095
:100B80001092A700E1CCEF92FF920F93DF93CF93E7
:100B9000CDB7DEB760970FB6F894DEBF0FBECDBFFE
:100BA000A82F002309F461C07E010894E11CF11C08
:100BB00088E0F70111928A95E9F729833A834B83FC
:100BC0005C836D837E83AF83988780E2801BE82FF0
:100BD000FF27E7FDF09549815A816B817C811816CA
:100BE00084F019861A861B861C86882799278E1BF7
:100BF0009F0B04C0440F551F661F771F8A95D2F7BD
:100C000028C0202F332727FD3095DB01CA01022E93
:100C100004C0880F991FAA1FBB1F0A94D2F78987A7
:100C20009A87AB87BC8704C076956795579547959B
:100C3000EA95D2F78D819E81AF81B88504C0880F77
:100C4000991FAA1FBB1F2A95D2F7482B592B6A2B35
:100C50007B2B4D875E876F87788B29853A854B85FF
:100C60005C856D857E85AF8598898A2F60960FB6E5
:100C7000F894DEBF0FBECDBFCF91DF910F91FF90F3
:100C8000EF9008955527002480FF02C0060E571FDD
:100C9000660F771F6115710521F09695879500976E
:100CA00099F7952F802D0895A0E0B0E0E9E5F6E0F2
:100CB000BFC0EC01A880B980CA80DB80A114B10458
:100CC000C104D10441F484E2A82E89EDB82E8BE54D
:100CD000C82E87E0D82EC601B5012DE133EF41E0E3
:100CE00050E083D027EA31E440E050E065D07B015A
:100CF0008C01C601B5012DE133EF41E050E075D024
:100D0000CA01B9012CEE34EF4FEF5FEF55D06E0DF5
:100D10007F1D801F911F97FF04C06150704080406D
:100D20009048688379838A839B839B013F77C901BD
:100D3000CDB7DEB7EAE098C0B7DF089584E690E06B
:100D4000B3DF0895A0E0B0E0809364009093650065
:100D5000A0936600B09367000895DC01CB01FC010D
:100D6000E199FECF06C0FFBBEEBBE09A31960DB213
:100D70000D9241505040B8F70895E199FECF9FBBC6
:100D80008EBBE09A99278DB30895DC01CB0102C098
:100D90002D9105D041505040D8F70895262FE19964
:100DA000FECF1CBA9FBB8EBB2DBB0FB6F894E29A48
:100DB000E19A0FBE01960895FF27EE27BB27AA27C9
:100DC00060FF04C0A20FB31FE41FF51F220F331FE3
:100DD000441F551F969587957795679589F70097D6
:100DE000760771F7CF01BD01089597FB092E0526FF
:100DF0000ED057FD04D04BD00AD0001C38F45095CB
:100E00004095309521953F4F4F4F5F4F0895F6F72E
:100E100090958095709561957F4F8F4F9F4F089566
:100E20002F923F924F925F926F927F928F929F92FA
:100E3000AF92BF92CF92DF92EF92FF920F931F93E8
:100E4000CF93DF93CDB7DEB7CA1BDB0B0FB6F89499
:100E5000DEBF0FBECDBF09942A88398848885F84D9
:100E60006E847D848C849B84AA84B984C884DF804A
:100E7000EE80FD800C811B81AA81B981CE0FD11D2E
:100E80000FB6F894DEBF0FBECDBFED010895A1E20D
:100E90001A2EAA1BBB1BFD010DC0AA1FBB1FEE1FF4
:100EA000FF1FA217B307E407F50720F0A21BB30B3F
:100EB000E40BF50B661F771F881F991F1A9469F7BB
:100EC00060957095809590959B01AC01BD01CF0117
:060ED0000895F894FFCF25
:080ED6003200FF800100000062
:00000001FF
